:020000040800F2
:10000000A8080020D91D0008151F0008171F0008A8
:100010001B1F00081F1F0008231F0008000000000E
:10002000000000000000000000000000271F000882
:10003000291F0008000000002B1F00082D1F0008CA
:10004000F31D0008F31D0008F31D0008F31D000850
:10005000F31D0008F31D0008F31D0008F31D000840
:10006000F31D0008F31D000873030008F31D0008CA
:10007000F31D0008F31D0008F31D0008F31D000820
:10008000F31D0008F31D0008F31D0008F31D000810
:10009000F31D0008F31D0008F31D0008011F0008F0
:1000A000F31D0008F31D0008F31D0008F31D0008F0
:1000B000F31D0008911E0008F31D0008F31D000841
:1000C000F31D0008F31D0008F31D0008F31D0008D0
:1000D000F31D000887220008F31D0008F31D000827
:1000E000DF0F0008F31D0008F31D000800F002F800
:1000F00000F03AF80AA090E8000C82448344AAF188
:100100000107DA4501D100F02FF8AFF2090EBAE885
:100110000F0013F0010F18BFFB1A43F0010318473B
:100120001060000030600000103A24BF78C878C129
:10013000FAD8520724BF30C830C144BF04680C60ED
:10014000704700000023002400250026103A28BF35
:1001500078C1FBD8520728BF30C148BF0B60704739
:100160001FB51FBD10B510BD04F036FA1146FFF7DC
:10017000F7FF01F051FE04F068FA03B4FFF7F2FF55
:1001800003BC02F021F8000030B589B005460C46EA
:100190000121084603F063F80121052003F052F81D
:1001A0000F20ADF8200018208DF8230003208DF8D3
:1001B000220008A9464802F089FDA8B2ADF818004F
:1001C000A0B2ADF814000020ADF81A00ADF816008A
:1001D00005A94FF0804003F06DF96020ADF80400F0
:1001E0000120ADF806000020ADF80C0001A94FF089
:1001F000804003F09CF90821C80603F0E7FD01A93F
:100200004FF0804003F0D5F90821C80603F0E7FD60
:1002100001A94FF0804003F019FA0821C80603F045
:10022000EBFD01A94FF0804003F05BFA0821C806FE
:1002300003F0EBFD0121880703F098FC09B030BD05
:100240003EB505460C460121C80202F0FBFFA8B2EC
:10025000ADF80400A0B2ADF800000020ADF8060033
:10026000ADF8020069461B4803F024F90121194842
:1002700003F07CFC3EBD7FB505460C460121022003
:1002800002F0EDFFA8B2ADF80800A0B2ADF804008E
:100290000020ADF80A00ADF8060001A90E4803F0F1
:1002A00009F9012211460C4803F07BFC1D208DF852
:1002B000000001208DF801008DF802008DF8030088
:1002C000684602F05AF80121034803F04FFC7FBD55
:1002D00000080140002C0140000400401FB501212E
:1002E000314802F0C4FD0121082002F0ABFF0820D4
:1002F000ADF80C0010208DF80F0003208DF80E00D3
:1003000003A92A4802F0E2FC1020ADF80C000320FB
:100310008DF80E0004208DF80F0003A9234802F089
:10032000D5FC0121084602F08DFF0421012002F0D6
:10033000E3FD1020019000208DF8080010208DF8BA
:10034000090001208DF80A0001A802F0DFFB10204F
:1003500002F02BFC0A208DF8000000208DF801002F
:100360008DF8020001208DF80300684602F005F8C0
:100370001FBD10B5102002F02FFC80B10C480068A2
:10038000012807D100210B4803F084FE00200A4910
:10039000086004E0074803F0A0FE07490860102049
:1003A00002F02BFC10BD000000023000000C0140E8
:1003B00010812142002C0140080000200FB59DB0A3
:1003C000FE4800681590FE4800681490FD480068DB
:1003D0001390FD48006812902399084605F038FCF8
:1003E00010902299084605F033FC0E90209908469B
:1003F00005F02EFC0D900E9905F05EFA0F90109905
:1004000005F05AFA119000F05BFC1C901C992098A2
:1004100005F01EFC20901C99229805F019FC2290F2
:100420001C99239805F014FC2390E6480168E348E2
:10043000006805F00DFC1090E3480168E048006892
:1004400005F006FC0F90109905F00AFD4FF0804171
:10045000119005F0FDFB1B90DB480168D94800684E
:1004600005F0F6FB1090D6480168D448006805F006
:10047000EFFB0F90109905F01FFA4FF0804111909B
:1004800005F0E6FB1A90D0480168006805F0E0FB33
:100490001190CC480168006805F0DAFB0F90C8485D
:1004A0000168006805F0D4FB0D90C448016800683D
:1004B00005F0CEFB0C900D9905F0D2FC0E900F9933
:1004C00005F0CEFC1090119905F0F6F919901A99E3
:1004D000239805F0BDFB11901999229805F0B8FBFF
:1004E0001090119905F0BCFC18901999209805F00E
:1004F000AFFB11901B99239805F0AAFB109011995E
:1005000005F0AEFC17901B99229805F0A1FB119005
:100510001A99209805F09CFB1090119905F0A0FC09
:100520001690AA49189805F093FB1190A848016805
:10053000119805F0C1F9A6490860A449179805F07B
:1005400087FB1190A3480168119805F0B5F9A149FE
:1005500008609E49169805F07BFB11909E48016843
:10056000119805F0A9F99C4908604FF07E50189940
:1005700005F06EFB10901D9905F09EF911909448BE
:100580000168119805F098F91D904FF07E50179969
:1005900005F05EFB10901E9905F08EF911908D48C4
:1005A0000168119805F088F91E904FF07E50169959
:1005B00005F04EFB10901F9905F07EF911908648CA
:1005C0000168119805F078F91F901F99084605F009
:1005D0003FFB0F901E99084605F03AFB0D901D99C0
:1005E000084605F035FB0C900D9905F065F90E9065
:1005F0000F9905F061F97549109005F029FB7349D1
:10060000119005F025FB754908607549734800682D
:1006100005F0C0F9059005F023F90022714BCDE9F2
:10062000060104F041FFCDE90A011F99129805F077
:100630000FFB05901E99139805F00AFB0390149880
:1006400080F0004001901D9905F002FB0290039993
:1006500005F006FC0490059905F002FC5B49069044
:1006600005F0F6FA079005F0FBF8CDE90801DDE9A1
:100670000A2304F01BFECDE90E014FF082415748DA
:10068000006805F087F94FF07E51099005F0DDFB19
:100690000A90159905F0DCFA0B9005F0E1F8CDE928
:1006A0000C01DDE90E2304F0B3FBCDE9100104F0E9
:1006B0007DFB424908604A494848006805F06AF9EC
:1006C000059005F0CDF80022464BCDE9060104F077
:1006D000EBFECDE90A011E99129805F0B9FA0590D2
:1006E0001F99139805F0B4FA039015991D9805F019
:1006F000AFFA0290039905F0DFF80490059905F030
:10070000AFFB3249069005F0A3FA079005F0A8F870
:10071000CDE90801DDE90A2304F0C8FDCDE90E01A9
:100720004FF082412D48006805F034F94FF07E51BA
:10073000099005F08AFB0A90149905F089FA0B904C
:1007400005F08EF8CDE90C01DDE90E2304F060FB25
:10075000CDE9100104F02AFB1949086020491F481F
:10076000006805F017F9059005F07AF800221D4B96
:10077000CDE9060104F098FECDE90A0112991D9811
:1007800005F066FA05901F99149805F061FA039038
:100790001E99159805F05CFA0290039905F060FB2C
:1007A0000490059905F088F80849069005F050FA7C
:1007B000079005F055F8CDE9080115E01400002078
:1007C000180000201C000020200000206F12833A37
:1007D00024000020280000202C00002030000020F1
:1007E000000040420000E03FDDE90A2304F05EFD26
:1007F000CDE90E014FF08241A648006805F0CAF825
:100800004FF07E51099005F020FB0A90139905F0F6
:100810001FFA0B9005F024F8CDE90C01DDE90E2359
:1008200004F0F6FACDE9100104F0C0FA9A49086024
:100830009A499848006805F0ADF8059005F010F861
:100840000022974BCDE9060104F02EFECDE90A0106
:1008500013991D9805F0FCF905901E99149805F060
:10086000F7F903901F99159805F0F2F90290039992
:1008700005F022F80490059905F0F2FA89490690EE
:1008800005F0E6F9079004F0EBFFCDE90801DDE99A
:100890000A2304F00BFDCDE90E014FF082417D48A3
:1008A000006805F077F84FF07E51099005F0CDFA19
:1008B0000A90129905F0CCF90B9004F0D1FFCDE924
:1008C0000C01DDE90E2304F0A3FACDE9100104F0D8
:1008D0006DFA7549086008460168006805F0B8F9C6
:1008E00010906D480168006805F0B2F90E906F48ED
:1008F0000168006805F0ACF90C906D48016800686B
:1009000005F0A6F90B900C9904F0D6FF0D900E9906
:1009100004F0D2FF0F90109904F0CEFF119000F078
:10092000CFF91C9062481C99006805F091F9604964
:1009300008605E481C99006805F08AF95B49086008
:1009400055481C99006805F083F9534908605648DA
:100950001C99006805F07CF9534908605548B0F9C6
:1009600004000E9005F014F953490F9005F070F94A
:100970004C49109005F06CF9119050480068014600
:100980001090119804F098FF4C49086021B000BD08
:100990002DE9F04F89B0824643480168006805F0B0
:1009A00057F905903C480168006805F051F903903B
:1009B0003E480168006805F04BF901903C48016829
:1009C000006805F045F90090019905F049FA029098
:1009D000039905F045FA0490059904F06DFF8346EC
:1009E00004F03EFF06460F462F4801682A4800687B
:1009F00005F02EF904902D4801682D48006805F097
:100A000027F90390049904F057FF4FF080410590B7
:100A100005F01EF9834604F023FF32463B46CDE93C
:100A2000060104F0DDF881F0004104464FF0005269
:100A3000234B04F03BFC804604F0B8F9CAF80800E8
:100A4000194801681948006805F002F90690124833
:100A500001681748006805F0FBF80590069905F055
:100A6000FFF94FF08041079005F0F2F8834604F05B
:100A7000F7FE064603F06CFE80464FF00052104B26
:100A800004F014FC044604F091F9CAF8040009B01B
:100A9000BDE8F08F300000201C0000200000404224
:100AA0000000E03F6F12833A200000201800002071
:100AB0001400002086000020F1FF793DF4000020A2
:100AC000DCA54C402DE9F04104460D4629465F481F
:100AD00005F0BEF8804641464FF07E5004F05AFFC4
:100AE0000746214604F0E8FE06463146204604F05B
:100AF00051FF57490860BDE8F0812DE9F0470546F0
:100B00000C46B5F90010B4F90020881A05F040F839
:100B100081464F480168484605F09AF80746B4F9FF
:100B2000000005F035F88046394604F0C5FE06465B
:100B300004F0F2FF00B22080B5F90210B4F90220EF
:100B4000881A05F025F8814641480168484605F0B5
:100B50007FF80746B4F9020005F01AF880463946D6
:100B600004F0AAFE064604F0D7FF00B26080B5F993
:100B70000410B4F90420881A05F00AF881463448B4
:100B80000168484605F064F80746B4F9040004F02B
:100B9000FFFF8046394604F08FFE064604F0BCFF96
:100BA00000B2A080BDE8F087F0B502460023002423
:100BB000002500201688274FDFF89CC09CF800C055
:100BC00027F81C605688254FDFF88CC09CF800C0C1
:100BD00027F81C609688224FDFF87CC09CF800C084
:100BE00027F81C6000BF0DE01A4E36F91060334440
:100BF0001A4E36F910603444194E36F910603544F7
:100C0000461CF0B20428EFDB1E46DF1703EB977794
:100C1000BF103FB20F802646E71704EB9777BF104F
:100C20003FB24F802E46EF1705EB9777BF103FB2CC
:100C30008F80094E3678761C074F3E703E463678D8
:100C4000042E01D100263E70F0BD0000DB0FC9402C
:100C50003400002038000020500000204000002018
:100C60004800002070B504460D46B4F9000004F0B9
:100C70008FFF0646244904F0EBFF2860B4F9020018
:100C800004F086FF0646204904F0E2FF6860B4F9EC
:100C9000040004F07DFF06461B4904F0D9FFA8605C
:100CA00070BD10B501460020CB78002204E0D41CB2
:100CB0000C5D6040541CE2B29C1CA242F7DB10BDEC
:100CC0002DE9F04704464FF07C51204604F0C0FF68
:100CD000814625462E460D48A0EB66063546294638
:100CE000484604F0B5FF8246294604F0B1FF80462D
:100CF0004FF07F5105F0A9F80746294604F0A8FFF8
:100D000005462846BDE8F08789A18B3ADF59375F51
:100D10007CB500F081FE00F03FFF4E494E48FFF7E2
:100D2000ECFE4E494E48FFF73FFF4E494B48FFF758
:100D300099FF4849B1F9040004F02AFF04464549E7
:100D4000B1F9020004F024FF05464249B1F9000060
:100D500004F01EFF0646434BCDE900549A685968DB
:100D600018683346FFF72AFB3F48007838B1002067
:100D70004FF080418886088788873C4908807CBD81
:100D800010B53948007810B9364800F071FA31488A
:100D90000088374908802F48408848802D4880883F
:100DA00088802E480088C8802C48408808812B48BD
:100DB0008088488110BD10B52B48007840B92D4877
:100DC000FFF7E6FD2B4800F06FF901202A49087073
:100DD00010BD10B508202949086000F0CBFF142091
:100DE00001F0CCF908202549091D086010BD2448F0
:100DF0000078401C2249087008468088401C888082
:100E000008464078401C487008468078401C88702E
:100E100070471B488088FA281AD10020184988801A
:100E200018480088B0F5BE7F03DA01201649086033
:100E30000EE00D48007840B11348006808B9012061
:100E400000E000201049086002E000200E49086020
:100E500070470000920000208C00002086000020D7
:100E600080000020E80000206D00002040000040CD
:100E7000FA010020F400002056000020100C014070
:100E8000A0000020980000208881214230B587B062
:100E900005460C460121042002F0E1F9A8B2ADF8A4
:100EA0000400A0B2ADF800000020ADF80600ADF8D7
:100EB00002006946664802F0FDFA0121644802F02A
:100EC00055FE0121042002F0BDF94FF48050ADF829
:100ED000180003208DF81A0004208DF81B0006A9C5
:100EE0005C4801F0F3FE0121084602F0ABF90C2149
:100EF000002002F001F84FF48050049000208DF89B
:100F0000140010208DF8150001208DF8160004A89B
:100F100001F0FCFD4FF4805001F047FE28208DF8D1
:100F20000C0000208DF80D008DF80E0001208DF8CA
:100F30000F0003A801F021FA07B030BD4648406910
:100F4000B0F5617F03D90120444908700CE04248A4
:100F50004069B0F5167F07D23F484069B0F5FA7F87
:100F600002D900203D49087070473B48406840F274
:100F7000E631884208D238484068B0F5787F03D916
:100F8000481F3749086003E0334840683449086027
:100F900031488068B0F5787F09D82F48806840F2E2
:100FA000D931884203D9081D2E49086003E02A4838
:100FB00080682C49086028480069B0F57A7F09D21A
:100FC00025480069B0F5787F04D94FF47970264937
:100FD000086003E02048006923490860704710B5A5
:100FE0004FF4805001F0F8FD60B3204800680128FC
:100FF00004D10021164803F04DF823E0144803F013
:101000006CF81B4908600846006841F28831884244
:101010000CD90020174908700F48C068A0F5E1708E
:1010200015490860FFF7A1FFFFF788FF1048006827
:101030000949104A127841F822000E480078401CF5
:101040000C4908704FF4805001F0D7FD10BD00002E
:101050000008004000080140300100206D00002021
:10106000580000205C000020600000203001214278
:10107000680000206C0000206400002008B50121F9
:10108000082002F0DFF80420ADF8000003208DF8FE
:10109000020010208DF803006946024801F016FE98
:1010A00008BD0000000C01402DE9F0410446FE4857
:1010B0000068A0F2E130062190FBF1F6304604F022
:1010C00067FD0546616804F0F7FBF8494860F84899
:1010D0000068A0F2DD30062190FBF1F6304604F006
:1010E00057FD0546A16804F0E7FBF04988604868B1
:1010F000F04904F079FE06D2EF49C868ED4904F0E2
:10110000DBFBED49C860E9494868EC4904F06CFD37
:1011100007D2E949C868E94904F0CEFBE649C8604E
:1011200007E0E24A5168E44AD06804F0C5FBE249AE
:10113000C860E149C868E24904F056FE02D2E048BE
:10114000DD49C860DC49C868DE4904F04DFD02D2C3
:10115000DC48D949C860D5498868D64904F044FEBE
:1011600006D2D949C868D34904F0A6FBD649C8605D
:10117000CE498868D14904F037FD07D2D249C86802
:10118000CE4904F099FBD049C86007E0C74A91688E
:10119000CD4AD06804F090FBCB49C860CA49C86802
:1011A000C74904F021FE02D2C548C749C860C649F4
:1011B000C868C44904F018FD02D2C248C249C860D8
:1011C000C24A5168B94A506804F04AFEBA490861F7
:1011D000BE4A9168B54A906804F042FEBA49086177
:1011E000BB480068642804DA0020B349C860B649E7
:1011F000C860B1480169B74804F02AFD0646AE4808
:10120000C168B54804F024FD0746A8484168B348C2
:1012100004F01EFD8046394604F04EFB054631467B
:1012200004F04AFBA4494861A7480169A94804F0B1
:101230000FFD0646A448C168A74804F009FD07460B
:101240009A488168A54804F003FD8046394604F0B9
:1012500033FB0546314604F02FFB9B494861934818
:1012600040689A494860914880688860BDE8F0818C
:101270002DE9FC4704469A49606804F0E9FC0546FC
:101280008D484169284604F017FB96494860944907
:10129000206804F0DDFC05468B484169284604F0CF
:1012A000D4FD9049886090480068A0F57975E917E9
:1012B00005EB9171881004F06BFC8046A06880F00B
:1012C00000478749384604F0C3FC0646414604F00F
:1012D000C7FD84490860854A5168824A506804F015
:1012E000BFFD07467B4904F0B3FC05467D484168D5
:1012F000784804F0ADFC0646294604F0DDFA7C4946
:1013000048617A4A9168774A906804F0A9FD0746D7
:10131000704904F09DFC0546724881686D4804F0F0
:1013200097FC0646294604F0C7FA724948616F4A9D
:1013300011686C4A106804F093FD07466E4904F08A
:1013400087FC0546674801686C4804F081FC064646
:10135000294604F0B1FA6A49486162484068634925
:1013600048606048806888605E4800680860584847
:10137000006804F00DFC80465D484169404604F079
:101380009BFA07465B484169384604F069FD06460A
:101390005B484169304604F08FFA054604F0BCFB17
:1013A00000B2584908804A48006804F0F1FB8046C2
:1013B0004F484169404604F053FD07464D48416996
:1013C000384604F04DFD06464D484169304604F06C
:1013D00047FD054604F0A0FB00B24B4908803C489D
:1013E000006804F0D5FB804641484169404604F05E
:1013F00063FA07463F484169384604F05DFA0646FD
:101400003F484169304604F02BFD054604F084FB5B
:1014100000B23E4908802E48006804F0B9FB8046BF
:1014200033484169404604F01BFD07463148416995
:10143000384604F041FA064631484169304604F026
:101440003BFA054604F068FB00B2314908802D489C
:10145000B0F9000003F013FF07464FF066322D4B42
:1014600003F024FFCDE900012B48B0F9000003F0A0
:1014700006FF07464FF03332284B03F017FF0546AF
:10148000DDE9002303F0C4FC814603F0C9FE00B28D
:101490001C4908801C48B0F9000003F0F0FE074624
:1014A0004FF066321B4B3BE058000020000100204B
:1014B0005C000020000070418C010020000070C121
:1014C00000007A4500007AC5740100200C0100205C
:1014D0006400002000002040CDCCCC3C0000304017
:1014E000E12E654218010020600000202401002048
:1014F000BC010020A40100200000B0400000C0405A
:10150000D40100206E000020700000207200002036
:10151000740000206666E63F760000203333D33F38
:1015200003F0C4FE05460E466448B0F9000003F01F
:10153000A6FE07464FF03332614B03F0B7FE8146FB
:101540002A46334603F064FCCDE9000103F068FE4F
:1015500000B25C4908805C48B0F9000003F08FFEDF
:1015600007464FF06632594B03F0A0FE05460E4683
:101570005748B0F9000003F082FE07464FF03332BF
:101580004F4B03F093FE81462A46334603F040FC5E
:10159000CDE9000103F044FE00B24B4908804D48FC
:1015A000B0F9000003F06BFE07464FF06632474B80
:1015B00003F07CFE05460E464748B0F9000003F0F4
:1015C0005EFE07464FF033323D4B03F06FFE81461F
:1015D0002A46334603F01CFCCDE9000103F020FE4F
:1015E00000B23C4908803D48B0F9000040F2D931D2
:1015F000884202DD0846394908803848B0F90000C1
:10160000322802DA3220354908802E48B0F900002D
:1016100040F2D931884202DD08462A49088029482B
:10162000B0F90000322802DA322026490880264824
:10163000B0F9000040F2D931884202DD0846224963
:1016400008802148B0F90000322802DA32201E4911
:1016500008802048B0F9000040F2D931884202DD0C
:1016600008461C4908801B48B0F90000322802DAFD
:10167000322018490880194800884FF08041888638
:10168000104800880887104800888887114800881B
:10169000134908801148B0F90000124908800F482A
:1016A000B0F9000008800D48B0F9000008800B4830
:1016B000B0F900000880BDE8FC8700007800002039
:1016C0003333D33F70000020720000206666E63F8F
:1016D0007A000020740000207C0000206E000020B2
:1016E000400000407600002008B50121082001F0EC
:1016F000A9FD4020ADF8000003208DF80200142061
:101700008DF803006946FD4801F0E0FA8020ADF84D
:10171000000003208DF8020014208DF803006946B4
:10172000F64801F0D3FAF6A002F004FF08BD00E08D
:10173000401E0028FCD1704700B54020EF4914310D
:1017400008600420FFF7F3FF8020EC4910310860A7
:101750000420FFF7ECFF4020E84910310860042026
:10176000FFF7E5FFE5480830006808B9012000E010
:10177000002000F0800008B1002000BD8020DF497B
:10178000143108600420FFF7D2FFDC4808300068FD
:1017900000F0800008B10020EFE78020D749143125
:1017A00008600420FFF7C3FF0120E6E700B54020F2
:1017B000D249143108600420FFF7B9FF8020CF49D7
:1017C000143108600420FFF7B2FF4020CB491031EC
:1017D00008600420FFF7ABFF8020C8491031086083
:1017E0000420FFF7A4FF00BD00B54020C349143119
:1017F00008600420FFF79BFF00BF8020BF49143121
:1018000008600420FFF793FF00BF4020BB49103160
:1018100008600420FFF78BFF00BF4020B749143158
:1018200008600420FFF783FF00BD00B54020B349E6
:10183000143108600420FFF77AFF8020AF4910318F
:1018400008600420FFF773FF4020AC4910310860A6
:101850000420FFF76CFF4020A849143108600420E1
:10186000FFF765FF00BD00B54020A44914310860B2
:101870000420FFF75CFF8020A0491031086004209D
:10188000FFF755FF40209D49103108600420FFF705
:101890004EFF9A480830006800F0800040B14020B8
:1018A0009649143108600420FFF741FF002000BD75
:1018B00040209249143108600420FFF738FF0120CE
:1018C000F5E700B50246082321E040208B4914319A
:1018D00008600420FFF72BFF02F0800038B1802061
:1018E0008649103108600420FFF721FF06E08020C0
:1018F0008249143108600420FFF719FF5006020ED8
:1019000040207E49103108600420FFF710FF1800C6
:10191000A3F10101CBB2D8D140207849143108603D
:101920000420FFF704FF00BD00B50823002280203B
:101930007249103108600420FFF7F9FE18E04020DA
:101940006E49143108600420FFF7F1FE00BF40200B
:101950006A49103108600420FFF7E9FE5006020EC4
:1019600066480830006800F0800008B142F00102CB
:101970001800A3F10101CBB2E1D140205F4914313D
:1019800008600420FFF7D3FE104600BD70B5054681
:101990000C46FFF7D1FE08B9002070BDD020FFF73C
:1019A00090FFFFF760FF18B9FFF700FF0020F4E792
:1019B0002846FFF786FFFFF756FF2046FFF781FF17
:1019C000FFF751FFFFF7F2FE0120E6E770B504468E
:1019D000FFF7B2FE08B9002070BDD020FFF771FFFD
:1019E000FFF741FF18B9FFF7E1FE0020F4E72046BA
:1019F000FFF767FFFFF737FFFFF79EFED120FFF7E6
:101A000060FFFFF730FFFFF78FFF0546FFF70DFF81
:101A1000FFF7CCFE2846DFE710B50E24FFF78CFE5B
:101A200008B9002010BDD020FFF74BFFFFF71BFFC8
:101A300018B9FFF7BBFE0020F4E73B20FFF741FF9A
:101A4000FFF711FFFFF778FED120FFF73AFFFFF70E
:101A50000AFF07E0FFF768FFC4F10D012F4A505459
:101A6000FFF7C2FE601EC0B20400F3D1FFF75CFFB7
:101A70002A494873FFF7D9FEFFF798FE0120D1E706
:101A800010B53B20FFF7A2FF244908703C20FFF768
:101A90009DFF224948703D20FFF798FF1F4988703D
:101AA0003E20FFF793FF1D49C8703F20FFF78EFFD0
:101AB0001A4908714020FFF789FF184948714320EF
:101AC000FFF784FF154908724420FFF77FFF134991
:101AD00048724520FFF77AFF104988724620FFF7C9
:101AE00075FF0E49C8724720FFF770FF0B49087356
:101AF0004820FFF76BFF0949487310BD000C0140F7
:101B00000D0A20C4A3C4E24932432020B3F5CABC65
:101B1000BBAFCDEAB3C9A3A100000000EC010020D7
:101B200010B57520FFF752FF682801D0002010BDC6
:101B300038A002F0FFFC4CF25030FFF7F8FD002116
:101B40006B20FFF723FF4CF25030FFF7F0FD072129
:101B50001920FFF71BFF4CF25030FFF7E8FD002182
:101B60001A20FFF713FF4CF25030FFF7E0FD182169
:101B70001B20FFF70BFF4CF25030FFF7D8FD1F2161
:101B80001C20FFF703FF4CF25030FFF7D0FD26A0DA
:101B900002F0D0FC0120CAE72A4840782949097898
:101BA00040EA0120393800B2274908802548C0782A
:101BB0002449897840EA01201A3800B22249488035
:101BC000204840791F49097940EA0120233800B2B2
:101BD0001D4988801B48407A1A49097A40EA012049
:101BE000153000B2194908801648C07A1549897A1B
:101BF00040EA01201B3800B2144948801148407B5C
:101C00001049097B40EA0120103000B20F4988805A
:101C1000704700000D0A204D5055363035302020D9
:101C2000D5FDB3A3A3A100000D0A204D50553630B9
:101C300035302020B3F5CABCBBAFCDEAB3C9A3A1F0
:101C400000000000EC0100208C000020800000203B
:101C500008B50121084601F0E8FA01214FF40170AE
:101C600001F0F0FA4FF4004001F050FA1020ADF806
:101C7000000000208DF803006946504801F026F866
:101C800008BD00B591B04E4800F008FE4D480690E2
:101C90004D480790002008900220099000200A90EB
:101CA00080200B9040000C9080000D9020200E9022
:101CB00000020F900020109006A9414800F090FE0D
:101CC00001213F4800F0B7FE3E484C3800F0BEFB13
:101CD000012000F09FFD0020019001208DF80800F8
:101CE0008DF809004FF4602003900020049002203A
:101CF0008DF8140001A933484C3800F0CEFB0723BF
:101D0000012204212F484C3800F05FFC07230222F7
:101D100011212C484C3800F058FC012129484C383E
:101D200000F0F2FB012127484C3800F0E2FB254887
:101D30004C3800F000FC00BF22484C3800F000FC9A
:101D40000028F9D11F484C3800F004FC00BF1D48A2
:101D50004C3800F004FC0028F9D1012119484C3816
:101D600000F007FC11B000BD10B5FFF771FFFFF7E1
:101D700088FF10BD2DE9F0471349488803F020FF84
:101D800080461149088803F01BFF81464FF08041CF
:101D900003F05EFF0746414603F0FCFD06460B4993
:101DA00003F056FF05460A4903F052FF044603F0CC
:101DB000CFFE08490880BDE8F08700000008014018
:101DC000080002404C2401409A0000209A99993F53
:101DD0000000C84298000020094880470948004791
:101DE000FEE7FEE7FEE7FEE7FEE7FEE7FEE7FEE7CB
:101DF000FEE7FEE704480549054A064B7047000028
:101E00000F200008ED000008A8020020A80800200C
:101E1000A8040020A804002000F0F9F8482000F0F1
:101E200077F94FF4FA6000F08DF900F0C7F9FFF789
:101E300025F94FF4E13000F0D6F9032140F2E73004
:101E4000FEF7A2F940F2CF214FF6FF70FEF7F8F946
:101E500047214FF6FF70FFF719F8FFF745FCFFF732
:101E60005FFE472140F2E730FEF705FAFFF77CFFFF
:101E70001D491E48FEF726FE09E01D48007830B1D6
:101E800000201B4908700C211A4800F04EFAF4E7B4
:101E900010B50121184802F032F920B3012116488B
:101EA00002F03EF9FEF7A3FFFEF732FF1348407839
:101EB000022804D1002011494870FEF761FF0F4845
:101EC0008078042804D100200C498870FEF773FF45
:101ED0000A480078322804D1002008490870FEF72B
:101EE00078FFFEF796FF10BD0000C0406F12833AE6
:101EF00056000020FA01002000040040A00000204D
:101F000010B54FF4807000F067FE4FF4807000F061
:101F100074FE10BD704700BFFEE700BFFEE700BFC4
:101F2000FEE700BFFEE7704770477047704700004C
:101F30000CB50020019000906C48006840F480309F
:101F40006A49086000BF6948006800F400300090EA
:101F50000198401C0190009818B90198B0F5A06F45
:101F6000F1D16248006800F4003010B10120009007
:101F700001E0002000900098012843D15C480068EF
:101F800040F010005A4908600846006820F003003D
:101F900008600846006840F0020008605348406846
:101FA000524948600846406848600846406840F426
:101FB000806048600846406820F47C10486008460D
:101FC000406840F4E81048600846006840F08070BF
:101FD000086000BF4548006800F000700028F9D094
:101FE0004248406820F00300404948600846406885
:101FF00040F00200486000BF3C48406800F00C0020
:102000000828F9D10CBD10B5FFF792FF10BD10B52F
:102010003648006840F001003449086008464068CE
:102020003449084031494860084600683249084050
:102030002E4908600846006820F4802008600846A1
:10204000406820F4FE0048604FF41F008860FFF7EE
:10205000DAFF4FF000602949086010BD10B500217B
:1020600000200022214B5B6803F00C0121B1042900
:1020700006D0082928D107E0214B224C236027E015
:102080001F4B204C236023E0184B5B6803F4701057
:10209000164B5B6803F48032022303EB904022B9B5
:1020A000194B4343174C23600DE0104B5B6803F45E
:1020B000003323B1144B4343124C236003E0104B15
:1020C0004343104C236003E00D4B0E4C236000BFD4
:1020D00000BF064B5B68C3F303130C4CE15C094B78
:1020E0001B68CB40074C236010BD0000001002406D
:1020F000002002400000FFF8FFFFF6FE08ED00E0C0
:1021000000127A00A800002000093D00AC00002069
:1021100010B504466FF0040000F079F9E11704EB04
:102120005171C1F3C701234A11701046007800EBCA
:102130004001C1EBC0104FF6FF7101EAC0001E491B
:10214000088010BD01461C4A12884A434FF0E02324
:102150005A6100229A6101221A6100BF4FF0E02209
:10216000106900F001021AB100F48032002AF5D0A3
:1021700000224FF0E0231A619A61704701460D4A30
:1021800012784A434FF0E0235A6100229A610122FB
:102190001A6100BF4FF0E022106900F001021AB18D
:1021A00000F48032002AF5D000224FF0E0231A61BB
:1021B0009A617047BC000020BE00002010B54FF4AB
:1021C000A06000F0D5F810BD014600BF704700BF09
:1021D000614A128802F04002002AF9D0C2B25E4B76
:1021E0001B1D1A80704710B586B00446012144F2C9
:1021F000050001F027F84FF40070ADF8140003203B
:102200008DF8160018208DF8170005A9534800F026
:102210005DFD4FF48060ADF8140004208DF81700C8
:1022200005A94E4800F052FD25208DF80000002041
:102230008DF801008DF8020001208DF8030068463A
:1022400000F09BF801940020ADF80800ADF80A00FA
:10225000ADF80C00ADF810000C20ADF80E0001A98F
:102260003D4801F0A4FF012240F225513A4802F016
:1022700036F80121384802F026F84021364802F0AD
:102280000AF906B010BD10B540F22551324802F0EF
:102290000BF910B3304802F087F8C4B23048007828
:1022A00000F08000C8B92E48007800F0400060B10E
:1022B0000A2C03D000202A49087020E02848007822
:1022C00040F080002649087019E00D2C06D1244802
:1022D000007840F040002249087010E02048007863
:1022E00000F03F001F490C541D480078401C1C4959
:1022F0000870084600783F2801DD0020087010BDF6
:1023000070B504460D4600260CE02178124802F014
:1023100047F800BF8021104802F0B0F80028F9D03B
:10232000641C761CAE42F0D370BD7CB504460D46ED
:102330000DA0006801900DA000680090022101A886
:10234000FFF7DEFF29462046FFF7DAFF0221684645
:10235000FFF7D6FF7CBD00000038014000080140B7
:10236000C40000200602002003FC0000FC03000063
:1023700031490143314A1160704770B50021002393
:102380000F22C47804B32D4C246804F4E064C4F52F
:10239000E064210AC1F10403CA40447804FA03F15D
:1023A0008478144021430901254C0678A15504780E
:1023B00004F01F050124AC4005786D11AD0005F156
:1023C000E025C5F8004109E0047804F01F05012468
:1023D000AC401C4D0678761145F8264070BD1A4A6F
:1023E0000A400243154B1B1F1A60704739B1134A4C
:1023F000121D12680243114B1B1D1A6006E00F4AA2
:10240000121D126882430D4B1B1D1A607047042871
:1024100008D14FF0E021096941F004014FF0E022BA
:10242000116107E04FF0E021096921F004014FF04C
:10243000E0221161704700000000FA050CED00E099
:1024400000E400E080E100E080FFFF1F10B50446DB
:10245000FA48844208D10121401500F00DFF002107
:10246000601500F009FF17E0F548844208D101210A
:10247000001500F001FF0021201500F0FDFE0BE02B
:10248000F048844208D10121C80300F0F5FE002184
:102490004FF4004000F0F0FE10BD30B502460020C1
:1024A00000235068E84C20400D790C6844EA05246C
:1024B000204350609068E54C2040D1E902542C4301
:1024C0004D7944EA450420439060D06A20F47000BE
:1024D0000C7C641EE4B2234340EA0350D06230BD5A
:1024E00000210160017141718160C16001210174AD
:1024F000704721B1826842F00102826003E0826885
:1025000022F001028260704721B1826842F4807239
:10251000826003E0826822F480728260704710B5A6
:102520000023CBB21AB144681C43446002E0446803
:102530009C43446010BD816841F008018160704790
:10254000014600208A6802F008020AB1012000E07A
:1025500000207047816841F00401816070470146A6
:1025600000208A6802F004020AB1012000E0002085
:10257000704721B1826842F4A002826003E0826861
:1025800022F4A00282607047014600208A6802F4AB
:1025900080020AB1012000E00020704710B50A4611
:1025A00000210023416821F46041531E41EA433178
:1025B000416010BD21B1426842F40062426003E014
:1025C000426822F4006242607047F0B504460D464E
:1025D00000200021092D11DDE068A5F10A0606EBB7
:1025E0004607072606FA07F18843A5F10A0606EB17
:1025F000460603FA06F10843E0600CE0206905EBAB
:102600004507072606FA07F1884305EB450603FA56
:1026100006F108432061072A0FDA606B561E06EBAD
:1026200086071F2606FA07F18843561E06EB860624
:1026300005FA06F10843606322E00D2A0FDA206BE9
:10264000D61F06EB86071F2606FA07F18843D61F1A
:1026500006EB860605FA06F10843206310E0E06AFF
:10266000A2F10D0606EB86071F2606FA07F188433E
:10267000A2F10D0606EB860605FA06F10843E062B4
:10268000F0BD21B1826842F48012826003E082686A
:1026900022F48012826070470146C86C80B2704795
:1026A00066484C300068704721B1426842F480624D
:1026B000426003E0426822F480624260704721B1C8
:1026C000426842F48052426003E0426822F4805241
:1026D000426070470A460021816821F4E0411143BD
:1026E0008160704721B1826842F40042826003E059
:1026F000826822F400428260704721B1826842F40D
:102700000212826003E0826822F402128260704743
:10271000014600208A6802F400120AB1012000E09C
:1027200000207047F0B50446154600200022002620
:10273000092911DDE068A1F10A0707EB470C07271B
:1027400007FA0CF29043A1F10A0707EB470703FAD7
:1027500007F21043E0600CE0206901EB410C072711
:1027600007FA0CF2904301EB410703FA07F210431A
:102770002061A06BC0F30156EF1C06F1010CA7EB22
:102780000C0707EB870C1F2707FA0CF29043EF1C8E
:1027900006F1010CA7EB0C0707EB870701FA07F21C
:1027A0001043A063F0BD10B50A4600210023816BE1
:1027B00021F44011531E41EA0351816310BD08B555
:1027C000002300930090009B0B440093009B1A6031
:1027D00008BD08B5024600200090009201F12800D3
:1027E000009B184400900098006880B208BD0A461B
:1027F00000214168164B1940114341607047416206
:10280000826270470A460021416821F01F0111438E
:102810004160704740B109490831096841F400013D
:10282000064A0832116007E004490831096821F4BA
:102830000001024A08321160704700000024014084
:1028400000280140003C0140FFFEF0FFFDF7F1FFD2
:10285000FFFD3FFF0246002013680B400BB1012033
:1028600000E000207047CA430260704770B502461E
:102870000020002300240B125568CEB205EA06049E
:1028800015681D4015B10CB1012000E0002070BD9D
:1028900000220A12D34303607047000001684FF61C
:1028A000FE72114001600021016041608160C160E1
:1028B0008D49884208D18C490839496841F00F0197
:1028C000894A083A51608AE087491431884208D120
:1028D00085490839496841F0F001834A083A516056
:1028E0007DE081492831884208D17F49083949680B
:1028F00041F470617C4A083A516070E07A493C3199
:10290000884208D178490839496841F47041764ACB
:10291000083A516063E074495031884208D17249E5
:102920000839496841F470216F4A083A516056E00D
:102930006D496431884208D16B490839496841F4CE
:102940007001694A083A516049E067497831884224
:1029500008D165490839496841F07061624A083A0E
:1029600051603CE06149884206D1011F096841F08D
:102970000F01021F116032E05C491431884208D116
:102980005A49091F096841F0F001584A121F1160A5
:1029900025E056492831884208D15449091F096861
:1029A00041F47061514A121F116018E04F493C31E7
:1029B000884208D14D49091F096841F470414B4ACA
:1029C000121F11600BE049495031884207D1474935
:1029D000091F096841F47021444A121F11607047B1
:1029E00010B50022026847F6F0739A430C6A8B68B0
:1029F00023430C6923434C6923438C692343CC69EB
:102A000023434C6A23438C6A23431A430260CB68F6
:102A100043600B6883604B68C36010BD0021016098
:102A200041608160C160016141618161C161016298
:102A300041628162704721B1026842F00102026086
:102A400004E002684FF6FE731A40026070471AB144
:102A500003680B43036002E003688B430360704725
:102A6000416070470146486880B2704701460020C7
:102A7000002201F080531BB11C4B083B1A6802E096
:102A8000194B083B1A6802EA01030BB1012000E070
:102A90000020704700F0805119B11449091F0860E7
:102AA00002E01149083948607047014600200022C1
:102AB00001F080531BB10D4B083B1A6802E00A4B32
:102AC000083B1A6802EA01030BB1012000E0002074
:102AD000704700F0805119B10449091F086002E0F5
:102AE0000149083948607047080002400804024064
:102AF000002044490860091D0860091D0860091D7F
:102B0000086041483F4914310860704700213D4941
:102B10008279002A3AD00A46126803689A430B4623
:102B20001A600A1D126803689A430B1D1A60027925
:102B300011440A6803681A430A60324A083212686C
:102B400003689A432F4B08331A601A1D12680368F2
:102B50009A432C4B0C331A604279102A0ED11A1F5B
:102B6000126803681A43274B08331A601A1D12684B
:102B700003681A43234B0C331A600DE02149427954
:102B800011440A6803681A430A6005E00279114497
:102B90000A6803689A430A60704700210160017166
:102BA0000C2141710021817170471649103109686B
:102BB0000143144A10321160704701460020114A47
:102BC000143212680A400AB1012000E00020704768
:102BD0000C49143108607047014600200022094B5F
:102BE0001B6803EA0102074B14331B680B4013B147
:102BF0000AB1012000E0002070470249143108604A
:102C00007047000000040140FFFF0F0010B50446AC
:102C1000CC48844208D10121042000F02DFB002182
:102C2000042000F029FB46E0C748844208D1012176
:102C3000082000F021FB0021082000F01DFB3AE0F5
:102C4000C248844208D10121102000F015FB002168
:102C5000102000F011FB2EE0BD48844208D1012174
:102C6000202000F009FB0021202000F005FB22E0DD
:102C7000B848844208D10121402000F0FDFA00212B
:102C8000402000F0F9FA16E0B348844208D101214F
:102C9000802000F0F1FA0021802000F0EDFA0AE037
:102CA000AE48844207D10121801500F0E5FA0021E9
:102CB000A01500F0E1FA10BD10B50121084600F0A2
:102CC000DBFA0021012000F0D7FA10BD2DE9F04118
:102CD000024600250026002000230024002791F84A
:102CE00003C00CF00F0591F803C00CF0100CBCF100
:102CF000000F03D091F802C04CEA050591F800C01E
:102D0000BCF1000F31D0146800202BE04FF0010C13
:102D10000CFA00F3B1F800C00CEA03069E4220D181
:102D200083004FF00F0C0CFA03F7BC4305FA03FCC9
:102D30004CEA040491F803C0BCF1280F06D14FF00F
:102D4000010C0CFA00FCC2F814C00AE091F803C0B0
:102D5000BCF1480F05D14FF0010C0CFA00FCC2F891
:102D600010C0401C0828D1D31460B1F800C0BCF1D9
:102D7000FF0F34DD546800202EE000F1080C4FF006
:102D8000010808FA0CF3B1F800C00CEA03069E42F1
:102D900021D183004FF00F0C0CFA03F7BC4305FA66
:102DA00003FC4CEA040491F803C0BCF1280F05D1E0
:102DB00000F1080C08FA0CF8C2F8148091F803C06E
:102DC000BCF1480F07D100F1080C4FF0010808FAD8
:102DD0000CF8C2F81080401C0828CED35460BDE81F
:102DE000F0814FF6FF710180022181700421C170D2
:102DF00070470246002093680B400BB1012000E0B1
:102E0000002070470146886880B270470246002063
:102E1000D3680B400BB1012000E000207047014651
:102E2000C86880B2704701617047416170470AB15C
:102E3000016100E041617047C16070474FF480322A
:102E40000A438261816182618269826970470246B8
:102E50000020434B18684FF68073184040EA021078
:102E600008433F4B186070473E49C8617047F0B552
:102E70000A46002300240021002500F00046B6F198
:102E8000004F02D1364EF16901E0354E7168C0F352
:102E9000034583B200F44016B6F5401F08D121F077
:102EA00070612F4E766826F070662D4F7E6012E0BE
:102EB00000F48016B6F5801F06D1032606FA05F445
:102EC000A14341F0706106E0460D360103FA06F6B3
:102ED000B14341F0706122B1460D360103FA06F6A6
:102EE000314300F00046B6F1004F02D11C4EF161B3
:102EF00001E01B4E7160F0BD30B500228B071C0F46
:102F00000F2303FA04F2164B08338C1053F82430C5
:102F10009343134C08348D1044F8253023468C100D
:102F200053F824308C07240F00FA04F423430C4C8C
:102F300008348D1044F8253030BD0A49DC31086072
:102F40007047000000080140000C014000100140E3
:102F50000014014000180140001C01400020014005
:102F60000000014000002042DF48006840F00100FE
:102F7000DD49086008464068DC490840DA49486095
:102F800008460068DA490840D749086008460068E2
:102F900020F4802008600846406820F4FE00486065
:102FA0004FF41F0088607047CF49096821F48031D1
:102FB000CD4A11601146096821F480211160B0F5F5
:102FC000803F03D0B0F5802F0ED106E0C6490968D6
:102FD00041F48031C44A116007E0C349096841F4F3
:102FE000A021C14A116000E000BF00BF704710B5CA
:102FF00001460022002300204A11012A02D1BA4CC6
:10300000236806E0022A02D1B74C236A01E0B64CDD
:10301000636A01F01F02012494401C400CB101209E
:1030200000E0002010BD38B50020009000240025ED
:1030300000BF3120FFF7DBFF05460098401C0090E1
:103040000098B0F5A06F01D0002DF2D03120FFF72D
:10305000CEFF08B1012400E00024204638BD01461F
:103060000020A14A106820F0F80040EAC10010607A
:103070007047A04908607047024600209A4B586884
:1030800020F47C1042EA01031843974B58607047C4
:1030900098490866704701460020934A506820F01E
:1030A00003000843506070478F48406800F00C00F0
:1030B0007047014600208C4A506820F0F000084319
:1030C0005060704701460020874A506820F4E06055
:1030D00008435060704701460020834A506820F43E
:1030E000605040EAC1005060704729B17E4A527A70
:1030F00002437D4B5A7204E07B4A527A82437A4BF8
:103100005A7270477B49D8310860704701460020E9
:10311000754A506820F440400843506070470021D1
:10312000714A20321170704A82F82010012802D0B2
:1031300004280AD104E001216B4A2032117005E015
:103140000521694A2032117000E000BF00BF7047BE
:103150006949086070476449096A0143624A11621B
:103160007047654944390860704730B50021002236
:10317000002400235C4D6D6805F00C0121B1042989
:1031800005D0082923D105E05C4D056022E05B4DA8
:1031900005601FE0544D6D6805F47012524D6D6866
:1031A00005F48034022505EB92421CB9544D554379
:1031B00005600BE04C4D6D6805F400351DB1504DB8
:1031C0005543056002E04D4D5543056002E04B4D0F
:1031D000056000BF00BF444D6D6805F0F0010909AE
:1031E000484D6B5C0568DD4045603F4D6D6805F4FA
:1031F000E061090A434D6B5C4568DD4085603A4DEE
:103200006D6805F46051C90A3E4D6B5C4568DD4050
:10321000C560354D6D6805F44041890B3A4D6B5CD6
:10322000C568B5FBF3F5056130BD29B12E4A526979
:1032300002432D4B5A6104E02B4A526982432A4BC8
:103240005A61704729B1284A92690243264B9A6114
:1032500004E0254A92698243234B9A61704729B161
:10326000214AD2690243204BDA6104E01E4AD26946
:1032700082431D4BDA61704729B11B4AD268024371
:10328000194BDA6004E0184AD2688243164BDA60C0
:10329000704729B1144A12690243134B1A6104E0C2
:1032A000114A12698243104B1A6170471249403922
:1032B000086070470F49C86470470B49C871704770
:1032C0000948406A40F080700749486270470146EB
:1032D0000020054A92680A400AB1012000E000205F
:1032E0007047014988727047001002400000FFF8E3
:1032F000FFFFF6FE000042428004424200127A00C4
:1033000000093D00C5000020D500002010B504468E
:10331000FE48844208D10121C014FFF7ADFF00210F
:10332000E014FFF7A9FFC4E0B4F1804F08D10121F8
:103330000846FFF7AEFF00210120FFF7AAFFB8E023
:10334000F348844208D101210220FFF7A2FF0021A7
:103350000220FFF79EFFACE0EE48844208D1012135
:103360000420FFF796FF00210420FFF792FFA0E062
:10337000E948844208D101210820FFF78AFF002193
:103380000820FFF786FF94E0E448844208D1012139
:103390001020FFF77EFF00211020FFF77AFF88E062
:1033A000DF48844208D101212020FFF772FF00216D
:1033B0002020FFF76EFF7CE0DA48844208D101212B
:1033C0004014FFF759FF00216014FFF755FF70E02C
:1033D000D548844209D10121C804FFF74DFF0021DF
:1033E0004FF40020FFF748FF63E0D048844209D142
:1033F00001210805FFF740FF00214FF48010FFF77F
:103400003BFF56E0CA48844209D101214805FFF735
:1034100033FF00214FF40010FFF72EFF49E0C548AD
:10342000844208D101214020FFF733FF00214020D2
:10343000FFF72FFF3DE0C048844208D101218020E2
:10344000FFF727FF00218020FFF723FF31E0BB4873
:10345000844208D101218015FFF71BFF0021A01530
:10346000FFF717FF25E0B648844209D1012108047F
:10347000FFF702FF00214FF48030FFF7FDFE18E058
:10348000B048844209D101214804FFF7F5FE00212C
:103490004FF40030FFF7F0FE0BE0AB48844208D158
:1034A00001218804FFF7E8FE00214FF48020FFF798
:1034B000E3FE10BD00220288944B98420ED0994B37
:1034C00098420BD0B0F1804F08D0914B984205D074
:1034D000904B984202D0904B984204D14FF68F7394
:1034E0001A404B881A438D4B984207D08C4B984218
:1034F00004D04FF6FF431A40CB881A4302808B88D2
:1035000083850B880385814B98420BD0854B98426D
:1035100008D08B4B984205D08A4B984202D08A4BF8
:10352000984201D10B7A038601238382704770B5DC
:10353000002400220023058C4FF6FE7635400584DA
:10354000028C8388048B4FF68F752C40B51E2C405F
:103550000D882C43751E2A400D892A434D882A4325
:103560006A4DA8420BD06F4DA84208D0744DA842B6
:1035700005D0744DA84202D0734DA84213D14FF626
:10358000F7752A404D892A434FF6FB752A408D88EE
:103590002A434FF6FF652B404FF6FF552B408D8990
:1035A0002B43CD892B4383800483CD888586028479
:1035B00070BD70B5002400220023058C4FF6EF7615
:1035C00035400584028C8388048B48F6FF752C40B7
:1035D0004FF6FF452C400D884FF6FF7606EA05258D
:1035E0002C434FF6DF752A400D8906EA05152A435C
:1035F0004D8806EA05152A43444DA84202D0494D9C
:10360000A8421DD14FF67F752A404D894FF6FF76AF
:1036100006EA05152A434FF6BF752A408D8806EA4B
:1036200005152A434FF6FF352B404FF2FF752B400F
:103630008D8906EA85052B43CD8906EA85052B434E
:1036400083800483CD880587028470BD70B5002413
:1036500000220023058C4FF6FF6635400584028C5E
:103660008388848B4FF68F752C404FF6FC752C4069
:103670000D882C434FF6FF552A400D894FF6FF76F3
:1036800006EA05252A434D8806EA05252A431F4DEB
:10369000A84202D0234DA8421DD14FF2FF752A4007
:1036A0004D894FF6FF7606EA05252A434FF6FF358A
:1036B0002A408D8806EA05252A434EF6FF752B40E1
:1036C0004DF6FF752B408D8906EA05152B43CD89F4
:1036D00006EA05152B4383808483CD888587028481
:1036E00070BD70B5002200230024058C4EF6FF76D5
:1036F00035400584038C8488828B48F6FF752A4008
:103700004FF6FF452A400D8820E00000002C0140C4
:103710000004004000080040000C00400010004081
:103720000014004000340140004C014000500140B2
:103730000054014000180040001C004000200040E0
:103740000040014000440140004801404FF6FF7630
:1037500006EA05252A434DF6FF752B400D8906EA3A
:1037600005352B434D8806EA05352B43FA4DA84213
:1037700002D0FA4DA84208D14BF6FF752C408D8936
:103780004FF6FF7606EA85152C4384808283CD8828
:10379000A0F84050038470BD828B4FF2FF331A4073
:1037A0008283828B4FF6FF7303EA01231A438283DD
:1037B0007047F0B50C461546002200210026078C04
:1037C0004EF6FF7C07EA0C070784828B018C4FF6CC
:1037D000FF7707EA043640F6FF473A404FF6FF7797
:1037E00007EA05273A434FF6FF7707EA03373A43DC
:1037F000D94FB8420ED0D94FB8420BD0B0F1804F5C
:1038000008D0D74FB84205D0D64FB84202D0D64FD5
:10381000B84206D14DF6FF77394046F48057394318
:1038200005E047F6FF57394044F480573943828317
:103830000184F0BD828B4FF6F3731A408283828B32
:103840000A4382837047F0B50C46154600220021DA
:103850000026078C4FF6FF6C07EA0C070784828B63
:10386000018C4FF6FF7707EA04264FF60C773A40B3
:103870004FF6FF7707EA03172F433A43B64FB84294
:103880000ED0B64FB8420BD0B0F1804F08D0B44F35
:10389000B84205D0B34FB84202D0B34FB84206D1B8
:1038A0004FF6FF57394046F48077394305E04FF231
:1038B000FF57394044F48077394382830184F0BD57
:1038C000028B4FF2FF331A400283028B4FF6FF73D5
:1038D00003EA01231A4302837047F0B50C461546EC
:1038E000002200210026078C4FF6EF7C07EA0C0728
:1038F0000784028B018C4FF6FF7707EA041640F627
:10390000FF473A404FF6FF7707EA03373A434FF64F
:10391000FF7707EA05273A438F4FB8420ED08F4F03
:10392000B8420BD0B0F1804F08D08D4FB84205D0CF
:103930008C4FB84202D08C4FB84206D14FF6DF7799
:10394000394046F01007394305E04FF65F773940BC
:1039500044F01007394302830184F0BD028B4FF617
:10396000F3731A400283028B0A4302837047F0B557
:103970000C46154600220021068C4FF6FE773E408D
:103980000684028B018C4FF60C7632407E1C06EAD0
:1039900003162E433243704EB0420ED06F4EB042EB
:1039A0000BD0B0F1804F08D06D4EB04205D06D4EB7
:1039B000B04202D06C4EB04206D14FF6FD76314097
:1039C00044F00106314305E04FF6F576314044F00E
:1039D0000106314302830184F0BD70B505460C46F3
:1039E0005D4885420ED05D4885420BD0B5F1804FD1
:1039F00008D05B48854205D05A48854202D05A48D3
:103A0000854200D100E000BF208850B92389A288F8
:103A100061882846FFF7ABFFE1882846FFF79EFF45
:103A200025E0208804280AD12389A28861882846B5
:103A3000FFF753FFE1882846FFF742FF17E0208891
:103A400008280AD12389A28861882846FFF7FBFE4F
:103A5000E1882846FFF7EEFE09E02389A288618805
:103A60002846FFF7A6FEE1882846FFF795FE70BDC1
:103A70002DE9F04105460C4600260127608808B96B
:103A8000022600E00026A088012801D1022700E0DC
:103A900001272088A0B92389A28861882846FFF7DA
:103AA00066FFE1882846FFF759FF23893A463146E9
:103AB0002846FFF712FFE1882846FFF701FF13E0D1
:103AC0002389A28861882846FFF707FFE1882846F6
:103AD000FFF7F6FE23893A4631462846FFF747FFAF
:103AE000E1882846FFF73AFFBDE8F0810A884B8855
:103AF0001A438B881A43CB881A430B891A434B8984
:103B00001A438B891A43A0F8442070474FF6FF717F
:103B1000818000210180C1804180017270470021B5
:103B2000018041808180C180018141818181C18189
:103B30007047002101804180012181800021C180E6
:103B4000018170470021018041808180C180018115
:103B50004181818170470000002C01400034014008
:103B60000004004000080040000C004021B1028821
:103B700042F00102028004E002884FF6FE731A4010
:103B80000280704731B1B0F8442042F40042A0F8FE
:103B9000442005E0B0F84420C2F30E02A0F844200F
:103BA00070471AB183890B43838102E083898B4379
:103BB000838170478182704741EA0203A0F8483050
:103BC00070471AB183890B43838102E083898B4359
:103BD0008381704701894FF6F87211400181704767
:103BE0000A46002101894FF68F7319401143018164
:103BF000704730B504460D4629462046FFF7F0FFD2
:103C0000208940F00700208130BD2DE9F0410446B5
:103C10000D4616461F46602D06D13B460122314611
:103C20002046FFF75AFE05E03B460122314620467A
:103C3000FFF79DFE29462046FFF7D2FF208940F07E
:103C400007002081BDE8F08130B50C4600210189D4
:103C5000C9B24FF6FF7505EA0325154325432943ED
:103C6000018130BD2DE9F04105460E4617469846C4
:103C7000002443463A4631462846FFF7E5FF2C89A3
:103C80004FF6F870044044F007044FF68F7004407C
:103C900044F070042C81BDE8F081F0B504460D4677
:103CA00016461F463B46324629462046FFF7CCFFC4
:103CB000208940F480402081F0BD018582827047D8
:103CC0000A46002101884FF68F7319401143018085
:103CD0007047F0B50C4615461E4600210022002311
:103CE0000189028B038C4FF6F877394021434FF658
:103CF000FC473A4040F201173A434FF6DD773B402C
:103D00004FF6FF7707EA06172F433B4301810283F3
:103D10000384F0BD0A460021018B4FF68F731940D2
:103D20001143018370470A460021018B48F6FF7357
:103D300019404FF6FF7303EA0223194301837047CA
:103D40000A460021818B4FF68F73194011438183FE
:103D500070470A460021818B48F6FF7319404FF6E1
:103D6000FF7303EA022319438183704721B102885C
:103D700042F08002028004E002884FF67F731A400E
:103D80000280704721B1828842F00402828004E000
:103D900082884FF6FB731A408280704721B1828877
:103DA00042F00802828004E082884FF6F7731A40DE
:103DB0008280704721B1828842F00102828004E053
:103DC00082884FF6FE731A40828070470A460021AF
:103DD000018B4FF6F77319401143018370470A4670
:103DE0000021018B4FF2FF7319404FF6FF7303EA76
:103DF00002231943018370470A460021818B4FF645
:103E0000F77319401143818370470A460021818B63
:103E10004FF2FF7319404FF6FF7303EA0223194371
:103E2000818370470A460021018B4FF6FB731940CE
:103E30001143018370470A460021018B4FF6FF337F
:103E400019404FF6FF7303EA0223194301837047B9
:103E50000A460021818B4FF6FB7319401143818381
:103E600070470A460021818B4FF6FF3319404FF609
:103E7000FF7303EA02231943818370470A46002136
:103E8000018B4FF67F7319401143018370470A4637
:103E90000021018BC1F30E014FF6FF7303EA0223E9
:103EA0001943018370470A460021818B4FF67F73C7
:103EB00019401143818370470A460021818BC1F369
:103EC0000E014FF6FF7303EA022319438183704703
:103ED0000A460021018C4FF6FD73194011430184FD
:103EE00070470A460021018C4FF6F77319401143C1
:103EF000018470470A460021018C4FF6DF73194098
:103F00004FF6FF7303EA02131943018470470A4610
:103F10000021018C4FF67F7319404FF6FF7303EABF
:103F200002131943018470470A460021018C4FF6A1
:103F3000FF5319404FF6FF7303EA0223194301842C
:103F400070470A460021018C4FF2FF7319404FF66B
:103F5000FF7303EA02231943018470470A460021D4
:103F6000018C4DF6FF7319404FF6FF7303EA0233DD
:103F700019430184704730B5002301248C40A3B25B
:103F8000048C9C430484048C02FA01F5ADB22C43EA
:103F9000048430BD30B5002304248C40A3B2048CCB
:103FA0009C430484048C02FA01F5ADB22C430484D2
:103FB00030BD70B503460020002418461830012596
:103FC0008D40ACB21D8CA5431D8409B1082909D1CF
:103FD00000EB6100056825F0700505600568154374
:103FE00005600EE00D1FC5F34E052844056825F455
:103FF000E045056005684FF6FF7606EA0226354380
:10400000056070BD21B1028842F00202028004E026
:1040100002884FF6FD731A400280704721B1028872
:1040200042F00402028004E002884FF6FB731A405B
:104030000280704721B1828842F08002828004E0D1
:1040400082884FF67F731A408280704702884FF64D
:10405000F7731A40028002880A4302807047828800
:104060004FF68F731A40828082880A43828070479D
:1040700002894FF6F8731A40028102890A430281CD
:10408000704702894FF67F731A40028102890A4302
:1040900002817047818470478185704781867047AF
:1040A0000187704781877047A0F8401070470288E9
:1040B0004FF6FF431A40028002880A43028070478D
:1040C0000146888E70470146088F70470146888FE9
:1040D00070470146B1F8400070470146888C704730
:1040E0000146088D704702460020138A0B400BB131
:1040F000012000E000207047CA430282704730B5BB
:104100000246002000230024158A05EA0103958950
:1041100005EA010413B10CB1012000E0002030BD1C
:10412000CA4302827047000010B50446FB4884422F
:1041300009D101218803FFF79FF800214FF4804047
:10414000FFF79AF832E0F648844209D10121480489
:10415000FFF79FF800214FF40030FFF79AF825E0B1
:10416000F048844209D101218804FFF792F8002128
:104170004FF48020FFF78DF818E0EB48844209D116
:104180000121C804FFF785F800214FF40020FFF754
:1041900080F80BE0E548844208D101210805FFF7CB
:1041A00078F800214FF48010FFF773F810BD2DE967
:1041B000F04786B005460E460024A24600BFA14641
:1041C0000027B08900B100BF2F462C8A4CF6FF7043
:1041D0000440F08804432C82AC894EF6F31004406E
:1041E000B08831890843718908430443AC81AC8AA3
:1041F0004FF6FF400440B0890443AC8201A8FEF7AB
:10420000B4FFC648874202D1DDF810A001E0DDF816
:104210000CA0A88900F4004040B10AEBCA0000EBF2
:104220000A1031684900B0FBF1F807E00AEBCA0058
:1042300000EB0A1031688900B0FBF1F86420B8FB8C
:10424000F0F004012009642101FB1089A88900F421
:10425000004040B1322000EBC900B0FBF1F000F0AB
:104260000700044308E0322000EB09106421B0FB92
:10427000F1F000F00F0004432C8106B0BDE8F08798
:104280004FF41651016000218180C18001810C2111
:10429000418100218181704710B502460020108ABB
:1042A0004FF2FF0318400B884C8823438C8823432C
:1042B000CC8823431843108210BD00210180418027
:1042C0008180C180704721B1828942F4005282818D
:1042D00004E082894DF6FF731A4082817047F0B581
:1042E0000346002400260025002040F66A17B94244
:1042F00000D100BF1846C1F3421401F01F06012788
:1043000007FA06F5012C01D10C3004E0022C01D192
:10431000103000E014301AB107682F43076002E044
:104320000768AF430760F0BD1AB1838A0B438382ED
:1043300002E0838A8B4383827047028A4FF6F073D0
:104340001A400282028A0A430282704782894FF22F
:10435000FF731A40828182890A438281704721B1AA
:10436000828942F00202828104E082894FF6FD7365
:104370001A4082817047028A4FF6DF731A40028228
:10438000028A0A430282704721B1028A42F48042C3
:10439000028204E0028A4BF6FF731A4002827047E1
:1043A000C1F308028280704701468888C0F3080084
:1043B0007047818941F0010181817047028BD2B23F
:1043C0000283028B42EA012202837047028B02F4CD
:1043D0007F420283028B0A430283704721B1828AA3
:1043E00042F02002828204E0828A4FF6DF731A4094
:1043F0008282704721B1828A42F01002828204E0F8
:10440000828A4FF6EF731A408282704721B1828A06
:1044100042F00802828204E0828A4FF6F7731A4063
:104420008282704721B1828942F40042828103E096
:104430008289C2F30E028281704721B1828A42F4DE
:104440000062828204E0828A4FF2FF731A40828205
:104450007047828A4FF6FB731A408282828A0A432F
:104460008282704721B1828A42F00202828204E095
:10447000828A4FF6FD731A408282704702460020FE
:10448000B1F5007F00D100BF13880B400BB10120B4
:1044900000E00020704701F40072B2F5007F00D107
:1044A00000BFCA430280704770B502460024002353
:1044B0000025002040F66A16B14200D100BFC1F3CA
:1044C000421501F01F03012606FA03F3012D02D164
:1044D0009689334006E0022D02D1168A334001E06E
:1044E000968A33400C12012606FA04F416883440EA
:1044F00013B10CB1012000E0002070BD10B5002206
:10450000002340F66A14A14200D100BF0A12012420
:104510009440A3B2DC43048010BD00000038014089
:104520000044004000480040004C00400050004063
:10453000704700000FB4044910B503AA029800F0B8
:1045400015F810BC5DF814FBC000002070477047E0
:104550007047704710B500F01BF8006810BD10B52B
:10456000044600F015F8046010BD0000074B70B55C
:104570000D467B4400F015F80446284600F024F868
:1045800010B14FF0FF3070BD204670BD59DCFFFF09
:10459000004870474802002001694A1C02610878FF
:1045A000704700B58FB0CDE9013100210591054973
:1045B0007944CDE903101146684600F032F80FB097
:1045C00000BD0000E5FFFFFF007B00F080007047AA
:1045D00000487047480200207546FFF7F9FFAE46D5
:1045E00005006946534620F00700854618B020B5FF
:1045F000FDF700FCBDE820404FF000064FF000073B
:104600004FF000084FF0000B21F00701AC46ACE87A
:10461000C009ACE8C009ACE8C009ACE8C0098D46E7
:1046200070472DE9F04106460024D6E90170F5688F
:104630008046304603E04146B847641C3046A847F0
:104640000028F8D12046BDE8F0810446AFF3008091
:104650002046FBF792FD490050EAC12018BF042014
:104660004A0D18BF40F0010040F2FF72B2EB515FFB
:1046700008BF40F00200012808BF052070472DE95F
:10468000F0414F1E00EBC7010446D1E90001154679
:104690001E4637F006020DD02A46334600F006FECD
:1046A0007F1E04EBC703D3E9002300F0B1FB37F012
:1046B0000602F1D1022F25D0042F13D0062F18BFE8
:1046C000BDE8F0812A46334600F0F0FDD4E90A2324
:1046D00000F09EFB2A46334600F0E8FDD4E90823AB
:1046E00000F096FB2A46334600F0E0FDD4E90623AD
:1046F00000F08EFB2A46334600F0D8FDD4E90423AF
:1047000000F086FB2A46334600F0D0FDD4E90223B0
:1047100000F07EFB2A46334600F0C8FDD4E90023B2
:10472000BDE8F04100F074BB012201F040BC00F094
:104730006FBB002213461046114600F019BC000062
:10474000024A0020110701F032BC000001FDFFFF0A
:104750002DE9F04D8D4F21F0004A86B005460C46FC
:10476000BA452ADBAAEB070028430AD088488245CD
:1047700001DC1AD1CDB106B02846BDE8F04DFFF7F7
:10478000D3BF844A844B284600F090FD07460E466E
:10479000824A834B2846214600F088FD06B03A46FF
:1047A0003346BDE8F04D00F033BB0120FFF7D7FEE4
:1047B00006B0BDE8F04DFFF7BCBF7A48824542DA4B
:1047C000BAF1795F0BDA2846FFF745FF042808BFE6
:1047D000FFF7B6FF284606B02146BDE8F08D2A4611
:1047E0000B46104600F062FD834602466E480E46B8
:1047F0000B4606217844FFF742FF5A46334600F045
:1048000055FD804669488A465A4633460421784415
:10481000FFF735FF5A46334600F048FD00223B467D
:1048200000F0F6FA02460B464046514600F0A0FB67
:104830002A46234600F03AFD06B02A462346BDE844
:10484000F04D00F0E5BA284624F0004100223D4634
:104850003B4600F029FE4FF0FF3201F0A8FB064670
:10486000024653480F460B4606217844FFF707FFE0
:1048700032463B4600F01AFDCDE900014D48324674
:104880003B4604217844FFF7FAFE32463B4600F0EF
:104890000DFD00222B4600F0BBFA83460291304604
:1048A000394600F05DFA804643480D46504517DC16
:1048B000DDE900015A46029B00F05AFB42462B46B6
:1048C00000F0F4FC42462B4600F0A2FA012201F06F
:1048D0006EFB304A304B00F0D9FE304A304B4CE092
:1048E0004FF0000A52460B46404600F091FACDE9DF
:1048F000031052462B461046194600F0D7FC3246AC
:104900003B4600F0D1FDDDE9033200F031FB064605
:104910000F46DDE900015A46029B00F029FB834661
:10492000009101223046394601F041FB194A1A4BE9
:1049300000F0BAFD06460F4601224046294601F026
:1049400036FB5A46009B00F0B1FC32463B4600F075
:104950009DFE06460F4601225046294601F027FBE0
:104960000E4DDFF858802A46434600F09DFD324642
:104970003B4600F099FD2A46434600F095FD002C89
:10498000D8BF81F0004106B0BDE8F08D0000F03FD7
:104990000000F07F075C143326A6913C182D445488
:1049A000FB21F93F0000E03F481800005E180000BE
:1049B000D2170000E81700003333EF3FFB21E93F37
:1049C0002DE9F84F04460D4621F00040009173494F
:1049D000814211DC7249884201DC06D12CB12046AB
:1049E0002946BDE8F84FFFF79FBE6E48002DCCBFAB
:1049F0006D496E49BDE8F88F6D49814211DD6D4901
:104A00008142D8BF4FF0FF366DDD20462946FFF7C3
:104A100022FE042808BFFFF793FE20462946BDE882
:104A2000F88F6549654F25F00045814233DD6449C3
:104A3000814219DD002632464FF080432046294648
:104A400000F0E6F980468A4601222046294601F018
:104A5000AEFA00223B4600F019FE4246534600F0F3
:104A600087FA04460D463EE001260022BA463B4640
:104A70002046294600F0CCF980460F4600225346D6
:104A80002046294600F002FE42463B4600F070FAFE
:104A900004460D4627E04B4981421BDDDFF828A183
:104AA0000226002253462046294600F0FFFB002242
:104AB0003B4600F0ADF980460F46002253462046A3
:104AC000294600F0E3FD42463B4600F051FA044619
:104AD0000D4608E0032622462B4600203B4900F005
:104AE00047FA04460D4622462B461046194600F06A
:104AF000DDFB8B46824602460B4600F0D7FB07469D
:104B00000246334888460B4606217844FFF7B7FD36
:104B100052465B4600F0CAFB82462E488B463A4618
:104B2000434605217844FFF7AAFD3A46434600F084
:104B3000BDFB02460B46002E504659460CDA00F0EB
:104B400067F922462B4600F0B1FB01B022462B4606
:104B5000BDE8F04F00F0A8BC00F05AF922462B4601
:104B600000F0A4FB1C4A7A4402EBC603D3E90023FD
:104B700000F08CFD22462B4600F088FD174A7A444F
:104B800002EBC603D3E9002300F08EFC009A002A52
:104B9000B8BF81F00041BDE8F88F0000000010446C
:104BA0000000F07F182D4454FB21F93FFB21F9BF91
:104BB0000000DC3F0000203E0000F33F0000F03F1B
:104BC0000000E63F008003400000F83F0000F0BF17
:104BD000EA150000A8150000461500000E1500009B
:104BE0002DE9F04D9446CCF1000423F000464CEA48
:104BF0000404524F46EAD4749A46884621F0004293
:104C0000BC4206D8454240EA050442EAD474BC429C
:104C100004D9BDE8F04D6246FFF789BDAAF14055C1
:104C2000A5F17F6555EA0C040BD0022404EAAA74AE
:104C3000434DDFF810E144EAD87452EA000B04D087
:104C40000CE0BDE8F04DFFF7BBBE002C14BF012CFB
:104C5000BDE8F08D022C30D0032C32D056EA0C0B7C
:104C60000AD0BE4220D1BA4209D126F0804622F0B5
:104C700080423346114617E000291ADB25E0DFF8B1
:104C8000C8B0FB44002C04BFDBE90001BDE8F08D97
:104C9000012C02BFDBE9000181F00041BDE8F08D8D
:104CA000022C0AD0032C0CD0BA4212D1B8F1000F5A
:104CB0000BDA23482549BDE8F08D28462449BDE894
:104CC000F08D28467146BDE8F08D1D482149BDE8AC
:104CD000F08D921B12153C2AC4BF19481D490EDCE9
:104CE000BAF1000FBEBF12F13C0F0020014606DBF7
:104CF000624600F03DF921F00041FFF761FE002C13
:104D000008BFBDE8F08D012C04BF81F00041BDE873
:104D1000F08D114A114B022C07D000F0B7FC2A4647
:104D2000BDE8F04D0A4B00F0B1BC00F0AFFC2A46E4
:104D3000BDE8F04D064B00F0B7BB00000000F07F6F
:104D4000182D4454FB2109C0A2140000FB21F9BF17
:104D5000FB210940FB21F93F075C143326A6A13C47
:104D60002DE9F04106460F4600F0AAFB04000D466F
:104D700018BF0120284320F00040C0F17F6000F1FF
:104D8000E040C00F0ED0301C18BF0120384320F087
:104D90000040C0F17F6000F1E040C00F04BF01207F
:104DA000FFF7DDFB20462946BDE8F08121F00042F7
:104DB000A2F16052B2F5801F01F0004328BFD2F18A
:104DC0007F6C0BD95FEA001C43EAC20242EB5070D1
:104DD00018BF704728BF20F001007047B2F5801F50
:104DE000BCBF184670474FEA410C1CF5001F02D2A9
:104DF000084600F0F4BF70B500F002FB0000008927
:104E0000FFF7F6BF4FF00040A0F5800070470000AC
:104E100010B591EA030F48BF83F0004300F13E84D0
:104E2000841A71EB030C05D2121943EB0C03001B1F
:104E300061EB0C01DFF824E14FEA1154A4EB135CA1
:104E40001EEA430F18BF9EEA445F73D023EA0E03A5
:104E5000DCF1200E21EA045143F4801332D322FA0C
:104E60000CFE10EB0E0023FA0CFE41EB0E01CCF110
:104E7000200E03FA0EFE10EB0E0051F10001B1F509
:104E8000801FCCF1200E32D201EB045112FA0EF247
:104E9000BDE8104058BF7047401C38BF5FEA42026F
:104EA00018BF7047002814BF20F0010041F1000135
:104EB0004FEA410313F5001F38BF7047A1F1C0410D
:104EC00000F0ECBA012A43EB0302ACF1200CDCF158
:104ED0001F0E32BF4FF0000E23FA0CF310EB03004D
:104EE00041EB0451B4EB115FD0D0A1EB045101F5BB
:104EF000801149085FEA300001EB04510ED350F1F4
:104F0000000038BF12FA0EFE08D1BDE81040C9E714
:104F1000401C38BF5FEA4202CAD1C3E7BDE8104077
:104F20004FEA410313F5001F38BF7047A1F1C0419C
:104F300000F0B4BA9EEA445F08D011EA5E0FBDE803
:104F4000104004BF01F0004100207047BDE8104050
:104F500070B500F055FA00BF64FBBE3E0000E0FFF4
:104F600002494FF0000000F0F0BF00BF0000F87FE2
:104F70002DE9C04130B4DFF8A0C23CEA111418BFDB
:104F80003CEA131400F0EC8081EA03051CEA1114DA
:104F900044EAD57418BF1CEA131500F0C780A4EBCF
:104FA00005044FF0004545EAC12145EAC32341EA23
:104FB000505143EA525304F17F74994204F500348E
:104FC0004FEAC0204FEAC22208BF904200F09C8006
:104FD0004FEA13650FF24016765D4FEA134506FB64
:104FE00005F7C7F1807706FB07F74FEAD737A7FB2E
:104FF00003687642C8F58038A7FB06CE38BFA8F113
:10500000010807FB08E64FF0000EA6FB028CE6FB4A
:1050100003CEDCF1000CCEF1004E38BFAEF1010E34
:10502000A6FB0C584FF000074FF00005E6FB0E877B
:10503000A1FB08C6A0FB07CE16EB0E0645F1000546
:10504000E1FB076515F1E04E7EBFA4F580345FEA11
:1050500046066D4116F1800745F100054FEA172716
:105060004FEA066647EA0567A6F1DE46B6F1805FBD
:105070004FEA15251FD9384624F0010C05EBC47101
:10508000BCF1FE6F01EB0C1102D8F0BCBDE8008151
:1050900024425CBF01F5801E9EEAC47F02D4F0BCAE
:1050A000BDE80081244238D4F0BCA1F1C041BDE884
:1050B000004100F0F3B94FEAD22242EA43524FEAEC
:1050C000D323A7FB02864FEAD02040EA415007FBDA
:1050D00003661EEA0E0F4FEAD12105FB026658BF98
:1050E000A6EB0056B6EB00564FEA520E4EEAC37ED0
:1050F00018EB0E0E56EB530EBDD518EB02085E41B1
:105100007F1C55F10005B6E74FF480154FF00007FE
:105110004FF000064FF00008ADE7F0BC4FF0000084
:1051200001F1C04101F00041BDE8008111EA0C1F0E
:105130000CEA131500D00CE013EA0C1F00F02580D8
:105140004FF00000F0BC81EA030101F00041BDE82E
:105150000081F0BCBDE8004181EA030100F09EB986
:10516000F0BCBDE8004170B500F04AF9097EFC3E94
:1051700000F007B881EA03014FF0000001F00041A0
:10518000704781EA030100F089B9F0BCBDE8004135
:105190004FF0000021497047FFFDFBF9F7F5F4F2ED
:1051A000F0EEEDEBE9E8E6E4E3E1E0DEDDDBDAD8C2
:1051B000D7D5D4D3D1D0CFCDCCCBCAC8C7C6C5C420
:1051C000C2C1C0BFBEBDBCBBBAB9B8B7B6B5B4B337
:1051D000B2B1B0AFAEADACABAAA9A8A8A7A6A5A422
:1051E000A3A3A2A1A09F9F9E9D9C9C9B9A999998E6
:1051F0009797969595949393929191908F8F8E8E89
:105200008D8C8C8B8B8A8989888887878685858415
:1052100084838382828181800000FF070000F87F01
:105220004FEA41034FEA5353A3F58063D3F11E03C2
:10523000C8BFD3F1210C0CDD4FF0004242EAC1227D
:1052400042EA505232FA03FC8CEAE17CACEBE170AA
:105250007047102BC4BF0020704703F5787CBCF169
:10526000FF3F04D06FF0004282EA2100704770B522
:1052700000F0C6F84992248000207047F2E710F051
:10528000004248BF4042B0FA80F310FA03F10AD05E
:10529000C3F11D0303F580634FEA415002EB035253
:1052A00002EBD12170474FF000007047DFF848C192
:1052B00070B51CEA111E1EBF1CEA13159EEA0C0FE6
:1052C00095EA0C0F00F06F8081EA030423EA4C1387
:1052D0004EEAD47E21EA4C1141F4801143F480134C
:1052E000AE44A1FB024CA0FB0365AEF17F7E3619F4
:1052F00055EB0C05A1FB034C4CF10003A0FB021C79
:1053000016EB0C06654153F10003094218BF46F045
:10531000010613F4007F0BD14FEA03314FEA053049
:10532000340341EA155140EA16506FF003020AE0D7
:105330004FEAC3214FEAC520F40241EA555140EA41
:1053400056506FF0020202EB2E4201EB025585EA45
:10535000CE710AD05FEA440C18BF24F0004450F12B
:10536000000041F1000120EAD47040F2FE7C624569
:1053700000D270BDA84214BF4FF080444FF04044AB
:10538000002E08BF0024BEF1806FA8BFA1F1C0416C
:10539000BDE8704080F282804FF0000001F1C04112
:1053A00001F0004170479EEA0C0F0CEA131518BF7C
:1053B00095EA0C0F06D04FF0000081EA030E0EF0C4
:1053C000004170BD00F01CF88900013E00F007B8F4
:1053D00000F009B84FEA430C5FEA5C5C08D081EA50
:1053E000030100F05BB84FEA410C5FEA5C5CF6D168
:1053F0004FF00000014970470000FF070000F87FF0
:105400000EF1020E2EF0030E5EF8046B364205D448
:10541000012A43EB030515F5001F12D8012841EBC3
:10542000010C1CF5001F0CD80ED14FEAD17C15F5EC
:10543000001F0CEB4C0C0CF1020C08BF4CEBD37CA6
:1054400004E04FF0080C01E04FEAD37C0CEB4C0574
:1054500026FA05F606F00706B6F1040C06D20EEBA6
:10546000860CBDE870404CF0010C6047DFE80CF0A2
:10547000090B02024FF000414FF00000A1F500219E
:1054800070BD19461046012851EB010418BFD4F530
:10549000001484BF002001F0004170BD0808A0F591
:1054A00000114FEA3101704791EA030F10B581F006
:1054B00000413FF5B5AC83F0004300F0EFB80000C9
:1054C0002DE9F04101F5801CBCF5001FC0F2C3803E
:1054D0004FEA115C21EA0C510CF1FD0C41F48011F2
:1054E0005FEA5C0C0CF5C07C01D3400049413DA44F
:1054F000890241EA905187028E0E0A0CA45D04FBDA
:1055000004F602FB06F6C6F14046A4FB0662F60D61
:1055100046EA422606FB06F4A4FB01235242C3F1ED
:10552000404338BF5B1EA6FB02420024E6FB032477
:10553000D20B42EA4446A6FB0623A1FB02E2A3FBF0
:1055400007E4A4184FF0000252F10002E3FB01420D
:105550006442C2F1404E38BFAEF1010EA6FB0423F7
:105560004FF00002E6FB0E32A2FB03464FF00004B0
:10557000B61954F10004E2FB0264A1FB06E6A4FBA9
:1055800007E816EB08064FF0000858F10008E4FBA6
:1055900001687642C8F1405838BFA8F10108A2FB63
:1055A00006E4A3FB08E52D194FF0000454F10004B4
:1055B000E2FB0854A1FB05E6A7FB04E818EB06088C
:1055C0004FF0000656F10006E1FB048618F12005B5
:1055D00056F10006A809A8F11B08B10908F03F0818
:1055E000B8F10A0F40EA86601CD901EB0C51BDE806
:1055F000F08100BFFCF5EEE8E2DDD8D3CFCBC7C326
:10560000C0BDB9B6B4B1AEACA9A7A5A3A19F9D9BDF
:105610009A9896959392908F8D8C8B8988878685A2
:1056200084838281A0FB006800FB01F208EB420842
:10563000B8EB872807D5341858EB0104D5D5401CA2
:1056400051F10001D1E7341A78EB0104CDD4401EAA
:1056500071F10001C9E75FEA4C0C5FEA9C5C0DD177
:1056600005D34FF0000001F00041BDE8F081BDE836
:10567000F04170B5FFF7C4FE6DDBFFBEBDE8F04141
:105680004FF00000004970470000F87F10B591EA24
:10569000030F48BF83F000433FF5C2AB841A71EBA0
:1056A000030C07D212198CF0004C43EB0C03001BC7
:1056B00061EB0C01DFF8A4E14FEA1154A4EB135C99
:1056C0001EEA430F18BF9EEA445F00F0B08023EA51
:1056D0006E03524221EA0451C3EB6E0338BF5B1ED6
:1056E000DCF1200E25D322FA0CFE10EB0E0043FA5B
:1056F0000CFE41EB0E01CCF1200E03FA0EFE10EB76
:105700000E0051F10001CCF1200E29D412FA0EF254
:1057100001EB0451BDE8104058BF7047401C1CBF4E
:10572000B2F1004F704700280CBF491C20F0010067
:10573000704712EB020E43EB030218BF4FF0010E4D
:105740004EEA4202ACF1200CDCF11E0E54D943FAB1
:105750000CFE10EB0E0051F1FF31CCF11E0ED5D531
:105760000EF1010E12FA0EFE404141EB010101EB78
:10577000445C5FEA5C5C10D910EBDE7001EB045115
:1057800038BFBEF1004FBDE8104018BF7047002879
:105790000CBF491C20F00100704730D24FEAD42CD6
:1057A00011F5001124F400641BD0B1FA81F20B3A18
:1057B000A41AA41ED2F12003914030FA03F3194336
:1057C000904001EBCC71002C01EB0451BDE810407E
:1057D000A8BF704701F1C0414FF0000001F0004147
:1057E0007047B0FA80F310FA03F100D110BDE41A4B
:1057F000173C4805C90AE4E701EB045110BD491004
:1058000001EB0451BDE810404FEA300002E04FF0D8
:10581000000170474A0008BF0042F8D0B2F5001FEF
:1058200028BF704701F000414FF0000070479EEA2A
:10583000445F07D011EA5E0FBDE8104004BF0021AD
:1058400000207047BDE8104070B5FFF7D9FD00BFDC
:1058500040DFF63E83F00041104670470000E0FF55
:1058600043004FEAD30C4FEA3C0C43401FBF4007B4
:105870000CF1605113F0FE4F70471CF0006F03D124
:1058800000200CF0004170470CF0004343EA5070D8
:1058900010B540EACC0000F05CFA00BF00000092B6
:1058A0004FEA0001FFF7FABD4FF000414FF0000052
:1058B000A1F500217047000090EA010F48BF81F078
:1058C000004100F1D482421A3CBF801A89184FEA85
:1058D000D0524FF07F4C1CEA410FA2EBD15318BFBE
:1058E0009CEA026F00F03B804FF0004C4CEA002035
:1058F0004CEA012121FA03FC10EB0C0C1ED202F140
:10590000FF325FEA1C2040EBC25038BF70471CF0EA
:105910007F0F4FEA400C18BFBCF17F4F38BF704774
:10592000C3F12003994008BF20F00100BCF17F4F74
:1059300038BF7047A0F1C04000F051BA4FEA3C00B8
:10594000000A40EBC25028BF1CF0FF0F4FEA400C8A
:10595000E6D018BFBCF17F4F38BF7047EAE79CEA3A
:10596000026F05D010EA5C0F08BF00F000407047DE
:1059700010B500F0EEF900BF64FBBE3E401058BF0A
:10598000C0F14040491058BFC1F140418142EFF39E
:10599000008070474FF47F0C1CEAD0121EBF1CEA37
:1059A000D11392EA0C0F93EA0C0F00F0858090EA75
:1059B000010F48BF42F4807240F4000C41F4000033
:1059C0002CF07F4120F07F4000B58142A2EB030222
:1059D0000FF2081CACEB504EC0F100009EF800E046
:1059E0004FEA4E0E00FB0EFC38BF49004FEA2C1C5C
:1059F00002F5FA020CFB0EF34FEACE1E4FEA112C11
:105A00004FEAC1210EEB635E42EB22420EFB0CFC1F
:105A10004FEA1C5300FB03114FEA112C4FEA0131EE
:105A20000EFB0CFC4FEADC4C00FB0C11C14228BF02
:105A300009184CEB03335DF804EB10EB410143EB29
:105A4000C250B2F57C0F38BF704729D512F0F00F65
:105A50001CBF00F1C04000F000407047008182830D
:105A60008485868788898B8C8D8E8F91929395966D
:105A700097999A9C9D9FA0A2A3A5A7A8AAACAEB0F7
:105A8000B2B3B5B7B9BCBEC0C2C5C7C9CCCED1D4FC
:105A9000D7D9DCDFE2E6E9ECF0F3F7FAFE0000002C
:105AA0004FEA400C0CF1807CBCF17E4F28BF704760
:105AB000B0F1C04000F093B990EA010F0CEAD113A5
:105AC00048BF42F48072624538BF634507D213F481
:105AD0007F0F16D080EA010000F00040704710B53B
